:1000000007C1000036C1000034C1000032C1000049
:1000100030C100002EC100002CC100002AC1000028
:1000200028C1000026C1000024C1000022C1000038
:1000300020C100001EC100001CC100001AC1000048
:1000400018C1000016C1000014C1000012C1000058
:1000500010C100000EC100000CC100000C94771507
:1000600008C100000C94330C0C940A0C02C100006F
:1000700000C10000FEC00000FCC00000FAC000008B
:10008000F8C00000F6C00000F4C00000F2C000009C
:100090000C94E10B0C94B80BECC00000EAC000001B
:1000A000E8C00000E6C00000E4C00000E2C00000BC
:1000B000E0C00000DEC00000DCC00000DAC00000CC
:1000C000D8C00000D6C00000D4C00000D2C00000DC
:1000D000D0C00000CEC00000CCC00000CAC00000EC
:1000E000C8C00000C618C918B818BC18C018001934
:1000F000CD18D118D718DB18DF18E518E918ED1856
:100100000019F318F718FB1800000A0B02090C0D70
:100110000E080703040100000000000000000000BA
:1001200000000000000000000000000000000000CF
:10013000000000001211100000000000000000008C
:1001400000000000000000000000000000000000AF
:100150002200250028002B002E003100340002016F
:100160000000050108010B01000021002400270008
:100170002A002D00300033000101000004010701B6
:100180000A0105050505070508080808020202021C
:100190000A0A080804040404010101010101010123
:1001A0000303030303030303040707070C0C0C0CEE
:1001B0000C0C0C0C020202020606060606060606D7
:1001C0000B0B0B0B0B0B0B0B010210202008081064
:1001D00020401020408002010201080402010102B7
:1001E0000408102040808040201008040201800490
:1001F00002018040201008040201080402010102EB
:1002000004081020408001020408102040803616A7
:1002100011241FBECFEFD1E2DEBFCDBF00E00CBF87
:1002200012E0A0E0B2E0E0EAF5E300E00BBF02C0BC
:1002300007900D92A03DB107D9F724E0A0EDB2E000
:1002400001C01D92A83DB207E1F711E0C8E0D1E07E
:1002500000E006C021970109802FFE010E94851948
:10026000C730D10780E00807A9F70E94DC170C947B
:10027000CE1AC6CECF93DF93FC01862F807809F08B
:1002800051C0283008F04FC0442321F095819730A9
:1002900009F449C0EF012D96A0E0B0E011969881D5
:1002A000911103C0662331F021C02596AF30B1050E
:1002B000A9F739C085E08A9FE0018B9FD00D1124FA
:1002C000CE0FDF1F442331F081E4888785818F5F63
:1002D000858302C081E0888725E02A9FC0012B9F8B
:1002E000900D1124E80FF91F80851DC06770660FFF
:1002F000660F660F442341F0606485818F5F8583BC
:100300008770687F682B03C02770687B622B25E0AD
:100310002A9FC0012B9F900D1124E80FF91F6087C1
:10032000862F01C080E0DF91CF910895611102C056
:1003300006960895FC013D9621E03081361307C0F2
:1003400035E0239F800D911D1124069608952F5F9F
:100350003596203191F780E090E00895CF93DF93B8
:10036000FC01EA0180819181892B19F580E027C089
:1003700028813981232BD1F3DB012D913C91D901C7
:100380009C91A381B0E0A81BB10920813181A20F0B
:10039000B31F9C93828181508283888199810197C8
:1003A00099838883DB018D919C91119701968D93A0
:1003B0009C9382818111DCCF8381828381E0DF91F4
:1003C000CF9108952F923F924F925F926F927F92BA
:1003D0008F929F92AF92BF92CF92DF92EF92FF9255
:1003E0000F931F93CF93DF9300D01F92CDB7DEB74B
:1003F0006C017C836B835A8349834C0180E1880EB6
:10040000911C5601A7E0AA0EB11C11E084E0482E11
:1004100097E0392E3601B2E16B0E711C23E0222EDB
:1004200032E0532E8B819C81892B09F401C1F601A6
:1004300080A1823059F128F4882349F0813079F085
:10044000F1CF833039F1843009F44AC0EBCF5482C4
:1004500085819681908787835286518610A3AE014D
:100460004D5F5F4FBE016F5F7F4FC50177DF882310
:1004700009F4DEC0D6011596ED91FC9116978081A6
:1004800091968C939197818192968C93F6017682C6
:10049000658220A2D60192968C91843081F018F466
:1004A000823079F014C0853081F0813281F4D60138
:1004B00091968C919197825014968C9308C0F60176
:1004C00013A2D60114963C9202C0F6018483F60171
:1004D000858196819087878384818287818740A2E6
:1004E000D60192968C918430A1F08530C1F1823092
:1004F00009F05FC0AE014D5F5F4FBE016F5F7F4F80
:10050000C5012CDF882309F493C0F601858984A3F3
:1005100087C0AE014D5F5F4FBE016F5F7F4FC5016A
:100520001DDF882309F484C0D60198968C91989792
:10053000811176C093961C93939752968C91529703
:1005400096968C93969753968C91539797968C93F7
:10055000979757968C91579795968C9361C0AE015B
:100560004D5F5F4FBE016F5F7F4FC501F7DE882390
:1005700009F45EC0F60183A1882309F451C0828189
:100580009381009709F44CC0DC01ED91FC9101903E
:10059000F081E02D7401D60195960C919597979670
:1005A0002C91979796964C91969794966C91199555
:1005B00037C0F60181A19585992319F0913031F06A
:1005C0002AC090E002979787868715872B813C8108
:1005D00089819A81782F692FD6011E964D915C9161
:1005E0001F974115510539F43C832B839A838983E6
:1005F0001D961C9210C001962115310541F0415005
:100600005109F6015787468721503109E3CF1C82F3
:100610001B8279836A83F60186859785892B41F44D
:10062000D60116969C928E92159790961C92FACEB1
:100630000F900F900F900F90DF91CF911F910F911E
:10064000FF90EF90DF90CF90BF90AF909F908F90F2
:100650007F906F905F904F903F902F900895CF9331
:10066000DF93EC0188899989DC01ED91FC9104808C
:10067000F581E02D6A89199581E08C8B1A8A1D8A93
:1006800080E0DF91CF910895FC016134C1F43F9681
:100690009C01265A3F4F61E0AC014E5F5F4FDF0186
:1006A00012971C9211966C93108213974D935C9342
:1006B0003596E217F30799F7FC01158208953D96E8
:1006C00021E03081361303C0622F0C94C1152F5FD7
:1006D00035962031B1F708951F93CF93DF9300D063
:1006E000CDB7DEB7182F80E591E06B830E944611ED
:1006F0000E94D90E126019836B816A8362E070E0F8
:10070000CE0101960E94BB0E0E94DB0E0E943E119C
:100710000F900F900F90DF91CF911F9108959F92AE
:10072000AF92BF92CF92DF92EF92FF920F931F93FF
:10073000CF93DF937C01C42F122F992493946C01E3
:10074000C60ED11CC60ED11C86E5C80ED11CA42E27
:10075000B12CABE2AA0EB11CAA0CBB1CAE0CBF1C88
:10076000F60180819181DC01ED91FC910280F381A1
:10077000E02D202F412F6C2F1995803EC1F4C1111F
:100780000AC061E088EEA8DF66E670E080E090E0F5
:100790000E947D1316C0F50180819181DC01ED91ED
:1007A000FC910284F385E02D612F19950AC08D30EC
:1007B00031F49FEF990D933008F03FC016C08111BE
:1007C0003CC0F60180819181DC01ED91FC910190AA
:1007D000F081E02D202F412F6C2F1995D82F8D30CF
:1007E00061F48FEF890D833050F464E670E080E0AF
:1007F00090E00E947D139394B3CF8823E9F0C11158
:100800000AC061E088EE68DF66E670E080E090E0B4
:100810000E947D1311C0EC2FF0E0BB96EE0FFF1F7E
:10082000EE0DFF1D80819181DC01ED91FC91028430
:10083000F385E02D612F19958D2FDF91CF911F91B9
:100840000F91FF90EF90DF90CF90BF90AF909F906F
:1008500008951F93CF93DF931F92CDB7DEB7182F64
:1008600080E591E00E9446110E94D90E812F0E94DE
:100870003F1180E00E943F1189830E94DB0E0E949D
:100880003E1189810F90DF91CF911F9108958F9232
:100890009F92AF92BF92CF92DF92EF92FF920F930F
:1008A0001F93CF93DF93862E942E59010E94C91473
:1008B0006B017C0128E8C20E23E1D21EE11CF11C71
:1008C00000E010E0D0E0C0E098280E94C914DC01EC
:1008D000CB018C199D09AE09BF09B7FF29C0692D4D
:1008E00080EFFADE0E94C914DC01CB018C199D094E
:1008F000AE09BF09B7FF07C088ECABDF87FFF2CFB7
:1009000060E888ECE9DE88EFA4DFC82FCF70C43040
:1009100019F0CE3051F00CC00F5F1F4FA114B1047D
:10092000A1F20A151B0589F603C0DF5FD33069F613
:100930008C2FDF91CF911F910F91FF90EF90DF905F
:10094000CF90BF90AF909F908F9008952F923F923D
:100950004F925F926F927F928F929F92AF92BF92CF
:10096000CF92DF92EF92FF920F931F93CF93DF937B
:10097000CDB7DEB729970FB6F894DEBF0FBECDBF57
:100980001C01798768875B834A836901D9018D904F
:100990009C901197FB01F181F9831D921C92DB0160
:1009A00012968C9181FD02C060E101C060E288EE88
:1009B00093DE8E2D90E0A0E0B0E08C839D83AE832B
:1009C000BF83482C2A813B81A885B9854C9160E082
:1009D000C1015DDFF82EB6E08B1314C088EF39DF5C
:1009E0008295817091E08927E885F985928180FB65
:1009F00091F9928391FD02C060E101C060E288EE4E
:100A00006BDEE0CF811162C088EC23DF82FF5CC027
:100A100080E31FDF582E90E08816990608F4542CC6
:100A2000D6018D919C91652C712CF401E81BF90B7A
:100A3000CF01F7FF02C080E090E0530186159705D3
:100A40000CF45C0180E591E00E9446110E94D90EF1
:100A500088E00E943F11A50160E070E0C8010E949B
:100A6000C71AA114B10421F0B501C8010E94BB0E40
:100A70000A0D1B1D0E94DB0E0E943E1164E088ECF3
:100A80002BDED6018D919C911197680E791E6D9287
:100A90007C92B9815B1618F06814790458F088EFDD
:100AA000D8DE82958170E885F985928180FB91F985
:100AB00092830CC0EE2009F485CF6C817D818E81FC
:100AC0009F810E947D137ECF80EFF82E8F2D299677
:100AD0000FB6F894DEBF0FBECDBFDF91CF911F914F
:100AE0000F91FF90EF90DF90CF90BF90AF909F90CD
:100AF0008F907F906F905F904F903F902F900895D0
:100B00002F923F924F925F926F927F928F929F921D
:100B1000AF92BF92CF92DF92EF92FF920F931F930B
:100B2000CF93DF93CDB7DEB766970FB6F894DEBFED
:100B30000FBECDBF1B8A38E03C8B3CE33D8B8A3F28
:100B40003FEF930711F486EDE8C0122F442E562E86
:100B50007C01DC011696CD90DC901797CE01439670
:100B600017969C938E9316971A962C939E012F5F3F
:100B70003F4F42E150E060E0C701D6D4F701D78291
:100B8000C6828111CAC089849A846B847C843D8129
:100B90003E8B2E80670186E5C80ED11C5601312C94
:100BA000D5018D919C91009789F1DC01ED91FC912B
:100BB0000084F185E02D1995811128C0F50180810F
:100BC0009181DC01ED91FC910088F189E02D622D8D
:100BD00019958823D9F0F50180819181DC01ED918F
:100BE000FC910484F585E02DA301B40119958111D0
:100BF0007FC0F50180819181DC01ED91FC9106843B
:100C0000F785E02D6E891995811172C03394B2E099
:100C1000AB0EB11CE0E13E12C3CFB12CD6018D91D9
:100C20009C91009799F1DC01ED91FC910084F18594
:100C3000E02D199581112AC0F60180819181DC0196
:100C4000ED91FC910088F189E02D622D19958823A2
:100C500009F458C0F60180819181DC01ED91FC918D
:100C60000484F585E02DA301B401199581110EC00E
:100C7000F60180819181DC01ED91FC910684F7857C
:100C8000E02D6E891995882309F43CC0B394B2E035
:100C9000CB0ED11CE0E1BE12C1CFD70116968D91CB
:100CA0009C911797892BF1F01A961C93242D40E004
:100CB000652DC701DFDAD82E8823B1F0682FC70170
:100CC00035DB009709F43FCFFC0114834D2D60E024
:100CD000C701FBD3182F882349F06D2DC701D4DC41
:100CE000812F1BC087ED19C084ED17C080E015C0AF
:100CF000012F242D452D632DC70111DD813D09F400
:100D000085CF0BC0012F242D452D6B2DC70107DD8D
:100D1000982F977F913D09F4B9CF66960FB6F89456
:100D2000DEBF0FBECDBFDF91CF911F910F91FF901E
:100D3000EF90DF90CF90BF90AF909F908F907F907B
:100D40006F905F904F903F902F9008952F923F9219
:100D50004F925F926F927F928F929F92AF92BF92CB
:100D6000CF92DF92EF92FF920F931F93CF93DF9377
:100D700000D01F921F92CDB7DEB77D836C835A01DE
:100D80006901FB0121808FEF820D803408F06EC075
:100D90000E94C9142B013C01F8E84F0EF3E15F1EDD
:100DA000611C711CEC81FD81828180FD02C060E4C8
:100DB00001C060E888EE90DC20E0312CC114D10441
:100DC00009F445C076012C143D0408F47101EA824F
:100DD000A8016E2D80E10E940E166E2D88E37CDC4A
:100DE000EC81FD816081606280EF76DC88EC31DD32
:100DF00087FFFCCF60E888EC6FDC88EF2ADD282FC6
:100E00002F70812C912C1982222361F02B830E9458
:100E1000C914DC01CB0184199509A609B7092B81F6
:100E2000B7FD05C0CE18DF080E0D1F1DC7CF263039
:100E3000F9F02E3009F44CC0243049F4FFEF8F1A3A
:100E40009F0AA114B10441F18A149B0429F588EF8B
:100E50002B83FFDC85FB882780F9EC81FD81928163
:100E600080FB90F992832B81822F38C08AED36C0A7
:100E700088EFEFDC85FB882780F991E08927EC81FA
:100E8000FD81928180FB90F9928390FD02C060E425
:100E900001C060E888EE20DC60E088E31DDCF8013A
:100EA000608180E119DC6A8188E316DCEC81FD81D8
:100EB0006081606280EF10DC88ECCBDC87FFFCCFC8
:100EC00060E888EC09DC88EFC4DC282F2F709CCF09
:100ED00089818F5F89838330F9F6B9CF0F900F90A6
:100EE0000F900F900F90DF91CF911F910F91FF9076
:100EF000EF90DF90CF90BF90AF909F908F907F90BA
:100F00006F905F904F903F902F9008958F929F9297
:100F1000AF92BF92CF92DF92EF920F931F93CF9336
:100F2000DF9300D01F92CDB7DEB76C0159014801A5
:100F30001C821B821A8219828E010F5F1F4F9E0135
:100F40002D5F3F4F4FD2811108C049815A816B817B
:100F50007C8184019501C601F9DC0F900F900F9000
:100F60000F90DF91CF911F910F91EF90DF90CF9075
:100F7000BF90AF909F908F9008952F923F924F9285
:100F80005F926F927F928F929F92AF92BF92CF9219
:100F9000DF92EF92FF920F931F93CF93DF93CDB722
:100FA000DEB762970FB6F894DEBF0FBECDBF3C012F
:100FB000F42E322E202E5C2D48A459A4CAA4DBA402
:100FC0001E861D861C861B868E01055F1F4F9E0197
:100FD000235F3F4F598B06D25989811198C03982BE
:100FE0002A82EB825C83BE82AD8298868F82AE01BC
:100FF0004F5F5F4F68E080E20E940E162B853C85B4
:101000004F2D60E1C30143DC182F81117CC0232CDC
:10101000221C2224221CC114D10409F468C0ED85CD
:10102000FE858281222009F454C0826082835401AB
:1010300033243394A114B10409F448C05A86498674
:101040004B855C856D857E85E12C86019E01275F41
:101050003F4FC3017BDC182F8630A9F42D853E85D8
:1010600088EF298B3A8BF5DB85FB882780F9832570
:1010700029893A89D90112969C91129780FB91F99E
:1010800012969C93D7CF81113EC0ECA5FDA5309759
:10109000A1F00190F081E02D0190F081E02DC401DC
:1010A0008A199B09988B8F8769857A859E01215FB4
:1010B0003F4FA6018CA59DA5199589859A85A81AEB
:1010C000B90A8415950508F0B5CF11C011111BC0E0
:1010D00013C0816082834B855C8586019201BF01CC
:1010E000C30134DE811113C02B853C850EC02B85D6
:1010F0003C85211003C009C02B853C8560EA4F2D3B
:10110000C301C5DB04C0812F02C060E8F8CF62963E
:101110000FB6F894DEBF0FBECDBFDF91CF911F9108
:101120000F91FF90EF90DF90CF90BF90AF909F9086
:101130008F907F906F905F904F903F902F90089589
:101140000F931F93CF93DF932115310569F0E901C8
:10115000042F162FEBD8FC01892B41F01283D18389
:10116000C083038380E003C088ED01C086EDDF917A
:10117000CF911F910F91089590E0FC01E853FE4F2D
:101180002491FC01EE57FE4F8491882399F090E062
:10119000880F991FFC01E859FE4FA591B491FC01FD
:1011A000E25BFE4F859194918FB7F894EC91E22B1E
:1011B000EC938FBF0895CF92DF92EF92FF920F933F
:1011C0001F93CF93DF936C017A018B01C0E0D0E0D5
:1011D000CE15DF0589F0D8016D918D01D601ED9115
:1011E000FC910190F081E02DC6011995892B11F435
:1011F0007E0102C02196ECCFC701DF91CF911F91F4
:101200000F91FF90EF90DF90CF900895FC01A0899F
:10121000B1898C91A689B78982FD0FC09C91818D7F
:101220008F5F8F73228D821749F0218DDF01A20F0E
:10123000B11D5D969C93818F08958C910895FC015A
:10124000918D828D981761F0828DDF01A80FB11DFD
:101250005D968C91928D9F5F9F73928F90E0089521
:101260008FEF9FEF0895FC01918D828D981731F0DB
:10127000828DE80FF11D858D90E008958FEF9FEF2F
:101280000895FC01918D228D892F90E0805C9F4F05
:10129000821B91098F739927089581ED92E0F1DF08
:1012A00021E0892B09F420E0822F089586E094E064
:1012B000E8DF21E0892B09F420E0822F0895EF92E6
:1012C000FF920F931F93CF93DF93EC0181E0888F00
:1012D0009B8D8C8D981305C0E889F989808185FDE7
:1012E00024C0F62E0B8D10E00F5F1F4F0F731127D8
:1012F000E02E8C8DE8120CC00FB607FCFACFE889FF
:10130000F989808185FFF5CFCE010E945C13F1CF72
:101310008B8DFE01E80FF11DE35AFF4FF0820B8F1A
:10132000EA89FB898081806207C0EE89FF8960833A
:10133000E889F98980818064808381E090E0DF9191
:10134000CF911F910F91FF90EF900895CF93DF936E
:10135000EC01888D8823C9F0EA89FB89808185FDAD
:1013600005C0A889B9898C9186FD0FC00FB607FC0E
:10137000F5CF808185FFF2CFA889B9898C9185FF4F
:10138000EDCFCE010E945C13E7CFDF91CF9108959E
:1013900088EF9CD7807C803491F018F48823E1F0AA
:1013A0000895803819F0803C99F0089588ED8ED723
:1013B00081FD09C069EC88ED6CD782E00AC088ED38
:1013C00085D781FDF7CF6BEC88ED63D783E001C053
:1013D00081E08093D002089561ED88ED5AD7109294
:1013E000D00208958F929F92BF92CF92DF92EF9298
:1013F000FF920F931F93CF93DF931F92CDB7DEB76A
:101400004C01B62E690149830E9496017C014981F5
:10141000009709F448C0DC01ED91FC9111973097D9
:1014200009F443C013969C9180E0891731F0208124
:10143000241729F033968F5FF8CFE0E0F0E0D60173
:10144000ED93FC93309799F122812695269530E013
:101450002031310514F02FE030E081E090E0A0E091
:10146000B0E004C0880F991FAA1FBB1F2A95D2F7AE
:101470000197F801918380836B2D80EE2DD988ED43
:10148000E8D9682FD70114968C91882339F0F4019C
:10149000EA58FF4F80818260682B01C0697F88ED28
:1014A0001BD980E005C086ED03C087ED01C08BED40
:1014B0000F90DF91CF911F910F91FF90EF90DF90F0
:1014C000CF90BF909F908F9008958F929F92AF92F0
:1014D000BF92CF92EF920F93CF931F921F921F92C2
:1014E0001F921F921F92812C912CA12CB12CC12CE8
:1014F000E42E05E020E040E040DDC82F6CE271E022
:1015000080E090E00E947D130F900F900F900F905D
:101510000F900F908C2FCF910F91EF90CF90BF90A5
:10152000AF909F908F9008958F929F92AF92BF92AD
:10153000CF92EF920F931F921F923F932F935F933F
:101540004F934A01A12CB12CCC24C394E12C06E08A
:1015500020E840E012DD0F900F900F900F900F9059
:101560000F900F91EF90CF90BF90AF909F908F9082
:1015700008958F929F92AF92BF92CF92EF920F9366
:101580001F931F921F921F930F935F934F934A01D4
:10159000A12CB12C32E0C32EE22E06E020E840E080
:1015A000ECDC0F900F900F900F900F900F901F9109
:1015B0000F91EF90CF90BF90AF909F908F90089534
:1015C0006F927F928F929F92AF92BF92CF92DF9253
:1015D000EF92FF920F931F93CF93DF93CDB7DEB7B8
:1015E000C154D1090FB6F894DEBF0FBECDBF3C0188
:1015F000F62EE42EB22ECE0101966C018C01242F22
:1016000049E050E0C30122963FAF2297B2DF229615
:101610003FAD2297811119C08B809C803F93BF9270
:10162000DF92CF921F9280E48F93A12CB12C82E0A5
:10163000C82E06E020E840E06F2DC3019EDC0F902D
:101640000F900F900F900F900F90CF5BDF4F0FB662
:10165000F894DEBF0FBECDBFDF91CF911F910F91E8
:10166000FF90EF90DF90CF90BF90AF909F908F90C2
:101670007F906F9008958F929F92AF92BF92CF927A
:10168000EF920F93A42EB12C1F921F921F921F92C4
:101690001F921F92812C912CC12CE62E01E023E297
:1016A00040E0FC0162858281938167DC0F900F909E
:1016B0000F900F900F900F900F91EF90CF90BF90E1
:1016C000AF909F908F9008958F929F92AF92BF920C
:1016D000CF92EF920F93A62EB12C1F921F925F9381
:1016E0004F931F9224E02F9324E0822E912CC12C43
:1016F000E12C00E023EA40E0FC01628582819381D5
:101700003CDC0F900F900F900F900F900F900F9167
:10171000EF90CF90BF90AF909F908F9008958F9251
:101720009F92AF92BF92CF92EF920F93A42EB12CC3
:101730001F921F921F921F921F921F92812C912C19
:10174000C12CE62E03E023E240E0FC0162858281A9
:10175000938113DC0F900F900F900F900F900F90CC
:101760000F91EF90CF90BF90AF909F908F90089582
:101770001F920F920FB60F9211240BB60F922F9358
:101780003F934F935F936F937F938F939F93AF9309
:10179000BF93EF93FF9381ED92E08ED7FF91EF918E
:1017A000BF91AF919F918F917F916F915F914F9179
:1017B0003F912F910F900BBE0F900FBE0F901F9077
:1017C00018951F920F920FB60F9211240BB60F921D
:1017D0002F933F934F935F936F937F938F939F9339
:1017E000AF93BF93EF93FF9381ED92E00FDDFF91F5
:1017F000EF91BF91AF919F918F917F916F915F9189
:101800004F913F912F910F900BBE0F900FBE0F90F5
:101810001F9018951F920F920FB60F9211240BB6BE
:101820000F922F933F934F935F936F937F938F9379
:101830009F93AF93BF93EF93FF9386E094E03CD7E1
:10184000FF91EF91BF91AF919F918F917F916F9198
:101850005F914F913F912F910F900BBE0F900FBE54
:101860000F901F9018951F920F920FB60F92112490
:101870000BB60F922F933F934F935F936F937F938A
:101880008F939F93AF93BF93EF93FF9386E094E082
:10189000BDDCFF91EF91BF91AF919F918F917F91AF
:1018A0006F915F914F913F912F910F900BBE0F90D1
:1018B0000FBE0F901F901895DC01ED91FC910190E7
:1018C000F081E02D1994613D784129F45D5281E069
:1018D0004230510508F080E00895FC0185890895A3
:1018E000FC018289089580E00895089581E00895BB
:1018F00080E0089580E00895089580E0089580E0F4
:10190000089580E0089580E0089580E008958F9222
:101910009F92AF92BF92CF92EF920F931F921F921E
:101920007F936F931F9222E02F9322E0822E912CBF
:10193000A12CB12CC12CE12C03E320EC40E0FC01F4
:1019400062898089918919DB0F900F900F900F9019
:101950000F900F900F91EF90CF90BF90AF909F900E
:101960008F9008958F929F92AF92BF92CF92EF92F5
:101970000F93DA010D900020E9F74D01841A950AC2
:10198000A62EB12C1F921F925F934F939F928F921E
:10199000C12CE12C04E320E440E0FC016289808951
:1019A0009189EBDA0F900F900F900F900F900F909E
:1019B0000F91EF90CF90BF90AF909F908F90089530
:1019C0003F924F925F926F927F928F929F92AF92CF
:1019D000BF92CF92DF92EF92FF920F931F93CF931C
:1019E000DF93CDB7DEB7EB970FB6F894DEBF0FBE2F
:1019F000CDBFDC015096ED90FC90519752961C9112
:101A000011119DC1522E342E462E3C01D701ED916D
:101A1000FC910190F081E02D60E0C70119956C0107
:101A2000009711F416ED8EC1FC0180809180811425
:101A3000910409F486C15301F6E1AF0EB11CDC013B
:101A40001196BC92AE9214965C929E01265D3F4F19
:101A500042E150E060E0F3018089918965DD082F63
:101A6000D6018D929C92811160C1D701ED91FC91BC
:101A70000280F381E02D232D40E0642DC7011995EC
:101A8000F301828B99A9978B482F60E08089918917
:101A90001CDD082FD701ED91FC91D60114961C9204
:101AA000882359F00480F581E02DD30152966C9182
:101AB000C7011995F301128A40C10190F081E02D10
:101AC000D30152966C91C7011995009709F4AACFDA
:101AD000FC015482950141E0D30152966C915297DA
:101AE00050968D919C9151972BDB082F81111DC130
:101AF0008AA99BA9813D984109F08DC08CA99DA917
:101B00009D52029708F087C04BAC512C8AE5C82E35
:101B100082E0D82E4301E2E08E0E911C7E01F1E1BD
:101B2000EF0EF11C541409F43FC0DA82C9829C8282
:101B30008B821E86188A1F8619A21AA21BA219A6BA
:101B4000FF82EE82F986E8868D818B878A87FD8603
:101B5000EC8661E070E080E090E0CFD59E012F5FE1
:101B60003F4F452DD30152966C91529750968D91CF
:101B70009C91519725DD811106C0F3018489833042
:101B800098F45394CFCF9E012F5F3F4F452DD30143
:101B900052966C91529750968D919C91519710DD71
:101BA000082F882351F3C1C0F3018489833041F1A8
:101BB0001F921F921F921F921F921F92812C912C95
:101BC000A12CB12CC12CD3015396EC90539709E072
:101BD00020E040E052966C91529750968D919C91E6
:101BE0005197CBD9082F0F900F900F900F900F9017
:101BF0000F9081119AC081E0D30155968C93A2C0B9
:101C0000950143E0F30162898089918999DA082F6F
:101C100081118BC0CDCF8FEF9FEF9A83898361E0D5
:101C200070E080E090E069D5BE016F5F7F4FC30137
:101C30006EDE811171C064E670E080E090E05DD5F9
:101C4000F3014481558160E0C3018CDE6AE070E0FD
:101C500080E090E052D5D30116964D915C91179794
:101C600061E0C3017FDE6AE070E080E090E045D58E
:101C7000F3014085518562E0C30174DE6AE070E0E3
:101C800080E090E03AD5D3011A964D915C911B9774
:101C900063E0C30167DE6AE070E080E090E02DD58C
:101CA000F3014485558564E0C3015CDE6AE070E0C1
:101CB00080E090E022D5D3011E964D915C911F9754
:101CC00065E0C3014FDE64E670E080E090E015D58A
:101CD0001F921F921F921F921F921F92812C912C74
:101CE000A12CB12CC12CE12C05E320E440E0F30150
:101CF00062898089918941D9082F0F900F900F90A8
:101D00000F900F900F90811110C064E670E080E09A
:101D100090E0F3D400EE09C0BE016F5F7F4FC301B6
:101D2000F6DD082F882309F486CFD301ED91FC91CD
:101D30000480F581E02DC3011995102F03C019ED22
:101D400001C017ED812FEB960FB6F894DEBF0FBEE2
:101D5000CDBFDF91CF911F910F91FF90EF90DF905A
:101D6000CF90BF90AF909F908F907F906F905F903B
:101D70004F903F900895FC0120812EBDDC013196EB
:101D80009C01260F371FE217F30741F051910DB464
:101D900007FEFDCF4EB55EBD4D93F5CF6150710985
:101DA000FC01E60FF71F0DB407FEFDCF8EB5808353
:101DB000089528980895289A08956F927F928F9297
:101DC0009F92AF92BF92CF92DF92EF92FF920F93CA
:101DD0001F93CF93DF93CDB7DEB7C650D2400FB677
:101DE000F894DEBF0FBECDBF66990CC088EC0E9490
:101DF000290485FF03C0CCDA60E201C060E088EC12
:101E00000E946C038091D002813039F040F0823022
:101E100079F0833031F511E00CC083E106C0809188
:101E20006E03807F8031E9F081E180936E0319C0F9
:101E300010E080916E03807F8031A1F4AAD5DC018F
:101E4000CB0188539F4FAF4FBF4F8093C6049093F1
:101E5000C704A093C804B093C90480E280936E03C2
:101E600001C010E024EEE22E23E0F22E6701D6013D
:101E70008D919D916D01009739F0DC01ED91FC9100
:101E80000680F781E02D1995B4E0CB16B4E0DB06AF
:101E900071F780916E03803409F443C050F48032AE
:101EA00031F18033C1F1813109F087C0109204040F
:101EB0000AC0813509F45BC0803809F46CC08035F4
:101EC00009F07BC03DC0F701819191917F0100979E
:101ED00039F0DC01ED91FC910480F581E02D19953C
:101EE000B4E0EB16B4E0FB0671F782E164C051D5B3
:101EF0000091C6041091C7042091C8043091C90410
:101F0000DC01CB01801B910BA20BB30BB7FD55C0BD
:101F100080E380936E0361E088EE0E946C0380E4AE
:101F20004AC088EE0E94290480FD47C088ED0E94C7
:101F30002904682F686088ED0E946C0380E53BC02F
:101F400088EC0E94290486FF38C081E580936E03E7
:101F500020D5DC01CB014496A11DB11D8093C604A0
:101F60009093C704A093C804B093C90426C011D5A8
:101F7000C090C604D090C704E090C804F090C90493
:101F8000DC01CB018C199D09AE09BF09B7FD15C055
:101F900080E880936E03212F40E060E08EE893E0BC
:101FA0000E948005882331F0823D39F08093C5047A
:101FB00080EA01C080E980936E03809184038111DF
:101FC00005C064EF71E080E090E0E1C080E092E065
:101FD000CB5FDD4F99838883C550D24081ED92E07D
:101FE00050D9181619060CF0A9C081ED92E027D936
:101FF000182F8E3F99F7CB5FDD4F48815981C5502F
:10200000D24060E070E0CE0101960E94C71A1983A9
:1020100081ED92E036D9892BD9F381ED92E00FD989
:102020008A8399278C010D5F1F4F6E01E3E0CE0E6E
:10203000D11CE12CF12CADD46093D9027093DA025B
:102040008093DB029093DC02E091D102F091D20206
:102050000680F781E02D81ED92E0199597FD11C082
:10206000D6018D936D01BFEFEB1AFB0AE016F10666
:1020700010F32A8193E0920F80E0FE0132964E2FFA
:102080001DC087D48090D9029090DA02A090DB0224
:10209000B090DC02DC01CB0188199909AA09BB09BF
:1020A0008090D5029090D602A090D702B090D8022E
:1020B00088159905AA05BB0538F2DBCF3E2F341BE6
:1020C000391718F431918327F9CFE22EF12CFE0154
:1020D000EE0DFF1D9581891331C040918B036091F6
:1020E0008103C0907F03D0908003CD5FDD4F1982C4
:1020F0001882C350D240CF5FDD4F19821882C15081
:10210000D2408E010F5F1D4F9E012D5F3D4FC601D6
:1021100069D9811113C097012B5F3F4FCF5FDD4F0E
:1021200048815981C150D240CD5FDD4F68817981AE
:10213000C350D2401250C6010E94A606CB5FDD4FAD
:1021400048815981C550D24060E070E0CE010196CF
:102150000E94C71AE12C8E010F5F1F4F9E012B5F5B
:102160003D4F409188036091810380917F0390915E
:1021700080030E948607CB5FDD4F88819981C5501F
:10218000D240892BD9F464E670E080E090E0B5D2CB
:10219000CA5FDD4F0FB6F894DEBF0FBECDBFDF9133
:1021A000CF911F910F91FF90EF90DF90CF90BF9054
:1021B000AF909F908F907F906F90089500E010E017
:1021C000CB5FDD4F88819981C550D2400817190730
:1021D000D0F666246394712C6C0E7D1E600E711E09
:1021E000F30180818E3F09F046C0E2E0F0E0EC0FA1
:1021F000FD1FE00FF11F9080A92CB12C6501F5E0C7
:10220000CF0ED11CC6010E948D197C01A601B3011D
:102210000E94BE1A0B5F1F4F0A0D1B1DF701EA0D2E
:10222000FB1D448183E0890D97012F5F3F4FF9012A
:1022300090E05E2F521B581718F451919527F9CF53
:102240004913BECFD70112962C91129730E0322F4E
:10225000222713968C91280F311D2115314009F446
:10226000AFCFA601B70181ED92E00E94DB0881EDBE
:1022700092E06CD8A5CF0F5F1F4FA2CF08958EBDFF
:1022800000000DB407FEFDCF8EB508958CBD9DBD39
:1022900008951F93CF93DF9300D0CDB7DEB7182FEB
:1022A00080E591E06B83F2DF84DD126019836B813E
:1022B0006A8362E070E0CE0101965DDD7CDD0F9007
:1022C0000F900F90DF91CF911F9108951F93CF939F
:1022D000DF931F92CDB7DEB7182F80E591E0D6DFF0
:1022E00068DD812FCCDF80E0CADF898364DD8981EE
:1022F0000F90DF91CF911F91089580E090E0892B9E
:1023000021F00E945609811121C080E090E0892BC4
:1023100021F00E944D0981111CC080E090E0892BC2
:1023200041F080E090E0892B21F00E9400008111B3
:1023300013C080E090E0892BA1F080E090E0892B31
:1023400081F00E94000081110AC008950E940000DF
:10235000DCCF0E940000E1CF0E940000EACF0C9485
:10236000000008953FB7F8948091D0049091D10473
:10237000A091D204B091D30426B5A89B05C02F3FED
:1023800019F00196A11DB11D3FBFBA2FA92F982F9B
:102390008827820F911DA11DB11DBC01CD0142E016
:1023A000660F771F881F991F4A95D1F70895CF931D
:1023B000DF93EC018A819B81DC01ED91FC9104802B
:1023C000F581E02D6A8519958A85813439F4EA8191
:1023D000FB81EA58FF4F8081846080831A861B86C8
:1023E0001C861D861E861F86188A80E0DF91CF918D
:1023F000089581E0693009F080E00895FC0182854C
:1024000008950E94BA1A3F924F925F926F927F9204
:102410008F929F92AF92BF92CF92DF92EF92FF92F4
:102420000F931F93CF93DF93CDB7DEB7E8970FB627
:10243000F894DEBF0FBECDBFDC011296ED90FC908C
:1024400013971A963C91311110C1822E342E962E7C
:102450003C01D701ED91FC910190F081E02D60E00D
:10246000C70119958C01009709F401C1FC01C080D6
:10247000D180C114D10409F4FCC05301F4E0AF0EC3
:10248000B11CDC011196BC92AE9214968C92FE01A6
:1024900031962F019F0148E050E060E0D301129691
:1024A0008D919C91139740D8F80114828111E7C057
:1024B00089808D81893009F0DEC0D701ED91FC91D2
:1024C0000280F381E02D232D41E0692DC70119958C
:1024D000F3018287882309F4D0C098859583482F1B
:1024E00060E0828193810E94650A982E882391F092
:1024F000D801CD92DC92D701ED91FC910480F58159
:10250000E02DD3011A966C91C7011995F30112863B
:10251000192DB9C0482D413208F040E2D801CD92C2
:10252000DC9241110BC0950142E0F301628582818A
:1025300093810E94A0088111A5C00FC050E09201B4
:10254000D3011A966C911A9712968D919C911397BC
:102550000E94940A811196C0E6CF1F921F925F924B
:102560004F921F9288E08F9388E0882E912CA12CA7
:10257000B12C99E2C92EE12C06E020EA40E0F301FB
:102580006285828193810E94BD07182F0F900F9062
:102590000F900F900F900F90811175C08B81D30118
:1025A0001B968C931B97820120E048E050E01A961E
:1025B0006C911A9712968D919C9113970E94B90A6B
:1025C000811160C04B815C8120E0F30162858281D2
:1025D00093810E94B90A811155C0498150E08E0152
:1025E0000F5D1F4F20E0D3011A966C911A97129637
:1025F0008D919C9113970E94B90A811143C01F923B
:102600001F921F921F921F921F92812C912CC12CFE
:10261000EE8009E020E040E0F30162858281938151
:102620000E94BD07182F0F900F900F900F900F90E2
:102630000F90811128C001E0D3011B968C911B974C
:10264000801730F0402F68E0C30169D80F5FF4CFE6
:102650001296ED91FC911397EA58FF4F80818460A8
:10266000808381E050968C930EC019ED0CC016ED5E
:102670000AC017ED08C011ED06C014ED04C0F80142
:10268000D182C082182F812FE8960FB6F894DEBF52
:102690000FBECDBFDF91CF911F910F91FF90EF90B3
:1026A000DF90CF90BF90AF909F908F907F906F9072
:1026B0005F904F903F900895FC01848DDF01A80F3B
:1026C000B11DA35ABF4F2C91848D90E001968F735A
:1026D0009927848FA689B7892C93A089B1898C9179
:1026E00080648C93938D848D981306C00288F3893F
:1026F000E02D80818F7D808308958F929F92AF928D
:10270000BF92CF92DF92EF92FF926B017C012ADEA3
:102710004B015C01C114D104E104F104E9F022DEB3
:10272000DC01CB0188199909AA09BB09883E9340AD
:10273000A105B10578F321E0C21AD108E108F1083A
:1027400088EE880E83E0981EA11CB11CC114D10430
:10275000E104F10421F7DECFFF90EF90DF90CF90FE
:10276000BF90AF909F908F900895CF92DF92EF929D
:10277000FF920F931F93CF938C01C62F7A01FA011A
:1027800080819181A281B3818130F3E09F07F1E0E4
:10279000AF07B105E1F060F48115E1E09E07AE07F7
:1027A000B10569F181309140A140B10581F08EC041
:1027B000833021E0920720E1A207B10509F468C047
:1027C00083309340A041B10509F462C07FC080917D
:1027D000CA0481117BC04C2F61E1C8010E943B0BF0
:1027E0004C2F60E1C8010E943B0B4C2F64E0C801F4
:1027F0000E948F0B81E08093CA0481EB68C0462F52
:1028000061E1C8010E943B0B4C2F60E1C8010E94AE
:102810003B0B1092CA04D8011A968C911A978770B4
:10282000C770880F880F880FC82B1296ED90FC9008
:102830001397CC2309F44AC06701B6E5CB0ED11C2F
:1028400000E010E0F601819191916F010097D1F0C5
:10285000DC01ED91FC910084F185E02D19958C133C
:1028600011C0055D1F4F000F111FF701E00FF11F91
:1028700080819181DC01ED91FC910480F581E02D56
:10288000199524C00F5F1F4F00311105D9F61EC0E6
:102890004C2F64E1C8010E943B0B4C2F60E1C80142
:1028A0000E943B0B64E170E080E090E026DFF801DD
:1028B0006285D70111962C912695217067704C2F57
:1028C000828193810E9480051092CA0480E0CF919A
:1028D0001F910F91FF90EF90DF90CF900895CF92CE
:1028E000DF92FF920F931F93CF93DF9300D01F923D
:1028F000CDB7DEB78C01F62E19821A821B821C829C
:10290000462F61E10E943B0B4F2D60E1C8010E9400
:102910003B0B4F2D64E0C8010E948F0B83E0C82E53
:10292000D12CAE014F5F5F4F6F2DC8010E94640B29
:102930008823D9F04F2D64E1C8010E943B0B4F2D35
:1029400060E1C8010E943B0B64E170E080E090E030
:10295000D4DE0F900F900F900F90DF91CF911F91C9
:102960000F91FF90DF90CF90089589819A81AB817C
:10297000BC819D7F83309140A041B105D9F264E6CE
:1029800070E080E090E0B9DE81E0C81AD10849F635
:10299000D1CF2FB7F8946091CC047091CD04809181
:1029A000CE049091CF042FBF0895CF92DF92EF9283
:1029B000FF920F931F93CF93DF93CDB7DEB72E9780
:1029C0000FB6F894DEBF0FBECDBFFC0120892111E8
:1029D00002C010E07CC06C01DCDFF60104851585C7
:1029E00026853785DC01CB01801B910BA20BB30B35
:1029F000B7FDEFCF81E090E09E878D87E12C8E01BF
:102A00000F5F1F4F9E01235F3F4F41E06285828130
:102A100093810E94860781114DC001E082E0F82E6B
:102A200089818F21B9F019861A861B861C86AE0112
:102A3000475F5F4F602FC6010E94640B81110AC07F
:102A4000AE01475F5F4F602FC6018FDE813B81F192
:102A5000811130C0FF0C0F5F083011F701E0F60163
:102A60008385801728F119861A861B861C86AE017D
:102A7000475F5F4F602FC6010E94640B811116C033
:102A800089859A85877091708130914079F48B8522
:102A90009C8581609C878B87AE01475F5F4F602F6D
:102AA000C60163DE813B21F0811104C00F5FD7CFE7
:102AB00010E001C0182F6DDFDC01CB018C599F4F56
:102AC000AF4FBF4FF60184879587A687B787812FC1
:102AD0002E960FB6F894DEBF0FBECDBFDF91CF911B
:102AE0001F910F91FF90EF90DF90CF9008951F926C
:102AF0000F920FB60F9211242F933F938F939F93B2
:102B0000AF93BF938091CC049091CD04A091CE045B
:102B1000B091CF043091CB0423E0230F2D3720F464
:102B20000196A11DB11D05C026E8230F0296A11D27
:102B3000B11D2093CB048093CC049093CD04A0933B
:102B4000CE04B093CF048091D0049091D104A09191
:102B5000D204B091D3040196A11DB11D8093D0047D
:102B60009093D104A093D204B093D304BF91AF91BA
:102B70009F918F913F912F910F900FBE0F901F90BB
:102B80001895DF92EF92FF920F931F93CF93DF93ED
:102B9000EC01E62EF12C85E0689FB0011124FE01C6
:102BA000E60FF71F8085182F177086FF20C001E001
:102BB00085E0D82E8FEF800F8F3008F001E0FE0106
:102BC000D09EE00DF11D1124808586958695869511
:102BD0008770811304C0602FCE01D3DFEBCF0F5F6E
:102BE000003169F78D81811302C011501D8385E08A
:102BF0008E9DF0018F9DF00D1124EC0FFD1F1086AE
:102C000081E0818712862296D783C683DF91CF9198
:102C10001F910F91FF90EF90DF9008950F931F93F6
:102C2000CF93DF93C82FD62F8A0180E591E02EDB6A
:102C3000C0D88C2F826023DBCD2FD0E0209719F0F5
:102C4000BE01C80198D8C00FD11FB5D817DBCE017F
:102C5000DF91CF911F910F910895EF92FF920F9303
:102C6000029726D30F91FF90EF9008951092D4020F
:102C70001092D30248EE53E060E070E04093D5023A
:102C80005093D6026093D7027093D8028AE092E004
:102C90009093D2028093D1022DEC30E03093DE028B
:102CA0002093DD022CEC30E03093E0022093DF0231
:102CB00028EC30E03093E2022093E10229EC30E08E
:102CC0003093E4022093E3022AEC30E03093E602F2
:102CD0002093E5022EEC30E03093E8022093E702E7
:102CE0001092EA021092EB021092EC021092ED02A6
:102CF000109209041092080440930A0450930B04A4
:102D000060930C0470930D04909307048093060461
:102D100085EC90E0909313048093120484EC90E08F
:102D2000909315048093140480EC90E09093170422
:102D30008093160481EC90E090931904809318041A
:102D400082EC90E090931B0480931A0486EC90E050
:102D500090931D0480931C0410921F041092200471
:102D600010922104109222048091040184608093C7
:102D700004018091050184608093050180E592E063
:102D800090938F0380938E03109293031092960377
:102D900081E0809397031092980380E993E09093E9
:102DA0009503809394031092900388E0809391039D
:102DB0008CE38093920380E090E041E020E933E0EF
:102DC000FC01E257FC4F1586468717863487238718
:102DD00005968B349105A1F71092040481E180934C
:102DE0006E038AE392E09093B5048093B4048EE876
:102DF00093E09093B7048093B6041092BE041092AF
:102E0000BF041092C0041092C1041092C204109228
:102E1000C3041092C4041092B80488E08093B904EB
:102E20009CE39093BA0491E09093BB048093BC041C
:102E300084E08093BD04E4EEF3E080E090E0219133
:102E40003191232B51F4880F991FFC01EC51FC4F59
:102E500084EB94E09183808304C0019680319105D6
:102E600071F78AE392E09093A4048093A3048EE820
:102E700093E09093A6048093A5041092AD04109261
:102E8000AE041092AF041092B0041092B1041092EC
:102E9000B2041092B3041092A70488E08093A804AF
:102EA0009CE39093A90491E09093AA048093AB04CF
:102EB00084E08093AC04E4EEF3E080E090E02191C4
:102EC0003191232B51F4880F991FFC01EC51FC4FD9
:102ED00083EA94E09183808304C001968031910558
:102EE00071F78AE192E09093700380936F0384E31B
:102EF00092E090937203809371038CE592E090933B
:102F00007403809373038AE792E09093760380932F
:102F1000750387E892E090937803809377038FEAB4
:102F200092E090937A038093790383EB92E09093FD
:102F30007C0380937B0387EC92E090937E038093E5
:102F40007D038EE893E09093800380937F0310923B
:102F500081031092820381E08093830310928403A3
:102F60001092850388E0809386038CE38093870327
:102F7000109288031092890384E080938A03109250
:102F80008B0310928C0380938D03E4EEF3E080E0DA
:102F900090E021913191232B51F4880F991FFC016E
:102FA000EC51FC4F8FE693E0918380830895019666
:102FB0008031910571F70895789484B5826084BD5D
:102FC00084B5816084BD85B5826085BD85B581602D
:102FD00085BD80916E00816080936E0010928100AB
:102FE0008091810082608093810080918100816066
:102FF0008093810080918000816080938000809127
:10300000B10084608093B1008091B00081608093B2
:10301000B000809191008260809391008091910036
:1030200081608093910080919000816080939000F6
:103030008091A10082608093A1008091A1008160B5
:103040008093A1008091A00081608093A000809176
:103050002101826080932101809121018160809310
:1030600021018091200181608093200180917A006C
:10307000846080937A0080917A00826080937A00E5
:1030800080917A00816080937A0080917A008068D4
:1030900080937A001092C100E091E102F091E20287
:1030A00082E08083E091DD02F091DE021082E09107
:1030B000DF02F091E0028FEC80831092E902E09150
:1030C000E502F091E60286E08083E091E302F09170
:1030D000E402808180618083E091E302F091E40268
:1030E000808188608083E091E302F091E402808136
:1030F00080688083E091E302F091E40280818F7D1B
:103100008083209A0E94DB0ECFB7F894809105044B
:10311000811193C067EB71E0FB018491ADEFB1E0E9
:10312000FD01349190E0880F991F88599E4FFC0152
:1031300045915491FA018081382309F06FC0EDE385
:10314000F1E04491FD012491FB019491992309F44C
:1031500065C0442309F454C050E0FA013197E231CC
:10316000F10508F04DC08827EE58FF4F8F4FCDC0B6
:10317000809180008F7707C0809180008F7D03C091
:1031800080918000877F809380003AC084B58F77DC
:1031900002C084B58F7D84BD33C08091B0008F772D
:1031A00003C08091B0008F7D8093B00029C08091D2
:1031B00090008F7707C0809190008F7D03C0809131
:1031C0009000877F809390001BC08091A0008F7734
:1031D00007C08091A0008F7D03C08091A000877FF1
:1031E0008093A0000DC0809120018F7707C080914F
:1031F00020018F7D03C080912001877F8093200173
:10320000E92FF0E0EE0FFF1FE25BFE4FA591B491B6
:103210008FB7F8949C91292B2C938FBF85E30E9444
:10322000BC088CB580618CBD8CB580648CBD84E39A
:103230000E94BC0883E30E94BC08809105048F5F54
:1032400080930504CFBF209A0E94DB0E6E9868E140
:1032500088E81FD860E288E71CD860E088E719D8C2
:10326000C1E0D0E0209779F088E630D8219680FF41
:10327000F9CF61EC88ED0DD860E680ED0AD864E006
:1032800088EE07D801C00FC088EE20D882FFFCCF9F
:103290000E94C80960E288EC0E94491161E080E860
:1032A0000E94491101C0FFCF0E94DD0E26D8FCCF3D
:1032B000EF92FF92CF93DF93DC01E70154968C915C
:1032C00054978330E9F053966C9353979B8191FF09
:1032D00017C09A81E92FEE1FEE27EE1F22E02E1B6A
:1032E000E22FF0E09F01220F331FE20FF31FEA0FDE
:1032F000FB1F9F70968B9C81978B8F5F54968C934E
:10330000DF91CF91FF90EF900895EE0FFF1F881F80
:103310008BBF0790F691E02D1994CF93DF93823005
:10332000910510F482E090E0E091D604F091D7048A
:1033300020E030E0C0E0D0E0309711F140815181D1
:1033400048175907C0F04817590761F482819381E3
:10335000209719F09B838A832BC09093D704809386
:10336000D60426C02115310519F04217530718F469
:103370009A01BE01DF01EF010280F381E02DDCCF75
:103380002115310509F1281B390B2430310590F442
:1033900012968D919C9113976115710521F0FB0197
:1033A0009383828304C09093D7048093D604FD0155
:1033B000329644C0FD01E20FF31F81939193225096
:1033C00031092D933C933AC02091D4043091D50417
:1033D000232B41F420910202309103023093D50453
:1033E0002093D4042091000230910102211531056F
:1033F00041F42DB73EB74091040250910502241BC1
:10340000350BE091D404F091D504E217F307A0F452
:103410002E1B3F0B2817390778F0AC014E5F5F4F2A
:103420002417350748F04E0F5F1F5093D504409383
:10343000D4048193919302C0E0E0F0E0CF01DF91EA
:10344000CF9108950F931F93CF93DF93009709F4C3
:103450008CC0FC013297138212820091D604109125
:10346000D7040115110581F420813181820F931F4A
:103470002091D4043091D5042817390779F5F093B9
:10348000D504E093D40471C0D80140E050E0AE17F9
:10349000BF0750F412962D913C911397AD01211561
:1034A000310509F1D901F3CF9D01DA01338322837C
:1034B00060817181860F971F8217930769F4EC0171
:1034C00028813981260F371F2E5F3F4F318320839C
:1034D0008A819B8193838283452B29F4F093D704BF
:1034E000E093D60442C01396FC93EE931297ED013D
:1034F000499159919E01240F351FE217F30771F48A
:1035000080819181840F951F029611969C938E93D2
:103510008281938113969C938E931297E0E0F0E062
:10352000D80112968D919C911397009719F0F8018C
:103530008C01F6CF8D919C9198012E5F3F4F820FA9
:10354000931F2091D4043091D5042817390769F4CA
:10355000309729F41092D7041092D60402C0138237
:1035600012821093D5040093D404DF91CF911F9160
:103570000F91089581E090E0F89410C0FB01DC0108
:1035800002C001900D9241505040D8F70895DC01DF
:1035900001C06D9341505040E0F70895F894FFCF7B
:1035A0000000D8048000000000005F09DB0841092A
:1035B0001F093309A60900000000E00C5C0C2F0372
:1035C000730C700C7C0C630C780C760C6D0C581919
:1035D000FEFF00002D16000000000312830CD7111F
:1035E000D514FE116F147A0CF911760C000000004E
:1035F00096013A01440300000000E201446F6E6747
:1036000079696E6720566F636174696F6E616C20B3
:10361000496E7374697475746500416E64726F6984
:1036200064537475647900436F6E6E656374205AD9
:103630006967626565203235333020616E642043EE
:103640006F6E74726F6C2053656E736F727300319E
:103650002E3000687474703A2F2F7777772E647944
:1036600078792E6E6574003230313630393037005B
:00000001FF
